:100BEF002A2A2A466972654269726420562A2A2A7D
:100BFF000056656C2E206D65737572656D656E742C
:100C0F000056656C203D202020202020636D2F731F
:010C1F0000D4
:100C2000020E00000210000002080000010B01018A
:100C30001702010A0F0114800115C00118100113D9
:100C400014010D1801191C010C0801160C0112C623
:100CC000E4FDFCC3ED9FEC9E5015E4FBFA0BBB006A
:0F0CD000010AEB64354A70F50DBD00010C80E49C
:010CDF0022F2
:0C0D2100D2A47F047E00120CC0C2A422E9
:100C7E00A90775A080C2A4C2A6E954F0FFC4540F00
:100C8E004480F5A0120D21E9540F4480F5A0020D09
:010C9E002134
:100CFB00C2A4C2A675A082120D21AF0B120C7EAF3F
:090D0B000A120C7EAF17020C7EE7
:100C9F00A90775A0C0C2A4D2A6E954F0FFC4540F8F
:100CAF0044C0F5A0120D21E9540F44C0F5A0020D68
:010CBF002113
:060C51008B218A22892399
:100C5700E4F524AB21AA22A9231209C5FF601712C4
:100C67000C9F74012523F523E43522F5220524E59D
:060C770024C3941040DDCF
:010C7D002254
:0D0D1400758961E4F58DF58BF58CF58A226B
:040D360075A8022278
:090D2D00D292D291C2B4C290220C
:100CE000AC0EAD0FE412090B7B7B7A1479AE784021
:0B0CF0001208001209448E088F092230
:100B3300E4FBFAAF14120C7EAA08AB097C007D64B7
:100B4300AF03AE021209DEEF2430F51C7C007D0AF0
:100B5300AF03AE021209DE8F1BE51B75F00A84E5B5
:100B6300F02430F51BAE02AF037C007D0A1209DED0
:100B7300ED2430F51AAF12120C7EAF1C120C9FAF8E
:0E0B83001B120C9F7F2E120C9FAF1A020C9FAC
:03000B00020ACD19
:100ACD00C0E0C0F0C083C082C0D075D000C000C0EF
:100ADD0001C002C003C004C005C006C007C2AFC23A
:100AED008C0511E51170020510641445107010F598
:100AFD0010F511120CE0120B33758D00758B00750E
:100B0D008C3C758AAFD2AFD28CC28DD007D006D0B7
:100B1D0005D004D003D002D001D000D0D0D082D0E7
:060B2D0083D0F0D0E0329D
:100B9100E4F51DF51EF51FF520120CFBAF16120C26
:100BA1007E120D14120D36C293D294AF14120C7E24
:100BB1007BFF7A0B79EF120C51AF15120C7E7BFF84
:100BC1007A0C7900120C517F887E13120CC0AF157C
:100BD100120C7E7BFF7A0C7910120C51D28ED28CC2
:0E0BE100D2AF120D2DAF8B750E008F0F80F767
:10080000EC4D6011E8497017ED33EC3304600DE4F2
:10081000FCFFFEFD22E933E8330470F80209B01250
:10082000097B58046009E4CC248150062850090251
:1008300009BA2840030209B7C0E0EB4A7044B98006
:1008400006D0E0FB0209A6EF4E701CBD8008EBFF4E
:10085000EAFEE9FD80EBE98DF0A4FEE5F00208E98F
:10086000E9CDF9EAFEEBFFEF89F0A4FCE5F0CE89D3
:10087000F0A42EFFE435F0CD89F0A42DFEE435F090
:100880008067EF4E7005BD80D780C3EF8BF0A4ACBE
:10089000F0EE8BF0A42CFCE435F0F8EF8AF0A42CF9
:1008A000E5F038FCE433CB8DF0A42CFCE5F03BF80C
:1008B000EE8AF0A42CFCE5F038F8E433CF89F0A4FC
:1008C0002CFCE5F038CF3400CE89F0A42FFFE5F002
:1008D0003EFEE433C98DF0A42EFEE5F039CD8AF05A
:1008E000A42FFFE5F03EFEE43DFD33D0E0FB5007D2
:1008F0000BBB000F0209BAEC2CFCEF33FFEE33FE0A
:06090000ED33FD02099237
:1009060075F020800E75F010800575F0087D007E6C
:10091600007F003392D530D503120A33EC334010F2
:10092600EF33FFEE33FEED33FDEC33FCD5F0ED2275
:0E093600E5F0247EA2D513CC92E7CDCEFF22B1
:10094400EDD2E7CD33EC3392D524814006E4FFFEAB
:10095400FDFC22FCE4CFCECDCC24E0501174FF800A
:10096400EDC3CC13CCCD13CDCE13CECF13CF0470A7
:07097400F030D5DE020A336A
:10097B00E9D2E7C933E833F892D5EDD2E7CD33ECC2
:07098B0033FC5002B2D5223B
:10099200EC30E7100FBF000C0EBE00080DBD0004C6
:1009A2000BEB6014A2D5EB13FCED92E7FD2274FF72
:1009B200FCFDFEFF22E480F8A2D574FF13FC7D80CB
:0309C200E480EFDF
:03000000020A41B0
:0C0A4100787FE4F6D8FD758124020A8855
:1009C500BB010689828A83E0225002E722BBFE0230
:0909D500E32289828A83E4932263
:1009DE00BC000BBE0029EF8DF084FFADF022E4CCFD
:1009EE00F875F008EF2FFFEE33FEEC33FCEE9DECC6
:1009FE00984005FCEE9DFE0FD5F0E9E4CEFD22ED0C
:100A0E00F8F5F0EE8420D21CFEADF075F008EF2F55
:100A1E00FFED33FD4007985006D5F0F222C398FD46
:050A2E000FD5F0EA22E3
:0E0A3300C3E49FFFE49EFEE49DFDE49CFC22D4
:100A4D00020B91E493A3F8E493A34003F68001F223
:100A5D0008DFF48029E493A3F85407240CC8C333AA
:100A6D00C4540F4420C8834004F456800146F6DF79
:100A7D00E4800B0102040810204080900C20E47EDD
:100A8D00019360BCA3FF543F30E509541FFEE4936E
:100A9D00A360010ECF54C025E060A840B8E493A335
:100AAD00FAE493A3F8E493A3C8C582C8CAC583CA60
:100ABD00F0A3C8C582C8CAC583CADFE9DEE780BE18
:010C500000A3
:00000001FF
